:020000040800F2
:100000003015002099010008E12D00082327000881
:10001000DD2D000859030008A93B0008000000007E
:1000200000000000000000000000000001010008C6
:10003000D90300080000000045010008153300083E
:10004000B3010008B3010008B3010008B3010008C0
:10005000B3010008B3010008B3010008B3010008B0
:10006000B3010008B3010008B30100085D030008F4
:100070006D0300087D0300088D0300089D03000840
:10008000B3010008B3010008B3010008B301000880
:10009000B3010008B3010008B3010008B301000870
:1000A000B3010008B3010008B3010008B301000860
:1000B00029340008B3010008B3010008B3010008A7
:1000C000B3010008B3010008B3010008B301000840
:1000D000B3010008F13A0008B3010008013B000831
:1000E000B3010008B3010008B3010008DFF80CD029
:1000F00000F076F800480047013C00083015002069
:10010000224B19680868B0E8F00F80F30988BFF344
:100110006F8F4FF0000080F311884EF00D0E704786
:100120000000000006480068006880F3088862B696
:1001300061B6BFF34F8FBFF36F8F00DF00BF00BF0B
:1001400008ED00E0EFF30980BFF36F8F0F4B1A68E3
:1001500020E9F00F106008B54FF0500080F31188CF
:10016000BFF34F8FBFF36F8F04F05EFA4FF00000C4
:1001700080F31188BDE8084019680868B0E8F00FFE
:1001800080F30988BFF36F8F704700BF70000020B5
:10019000EFF3058070470000064880470648004797
:1001A000FEE7FEE7FEE7FEE7FEE7FEE7FEE7FEE727
:1001B000FEE7FEE7D1330008ED00000840EA010346
:1001C0009B0703D009E008C9121F08C0042AFAD20D
:1001D00003E011F8013B00F8013B521EF9D27047D1
:1001E000064C074D06E0E06840F0010394E8070084
:1001F00098471034AC42F6D3FFF77CFFCC4A000896
:10020000EC4A000870B5044600252068806800F0BC
:100210000100F0B12068806820F00100216888604A
:1002200000F040FF05460EE000F03CFF401B0228B6
:1002300009D9A06A40F01000A062E06A40F0010015
:10024000E062012070BD2068806800F00100002895
:10025000EAD10020F6E770B505466C6AA06A00F0A6
:100260005000E0B9A06A40F40070A0622068806885
:1002700000F46020B0F5602F0DD1E06858B9A06A95
:1002800020F48070A062A06A00F4805018B9A06ABF
:1002900040F00100A062204600F0D2F903E0206A9D
:1002A000016B2846884770BD70B505466C6AA06A28
:1002B00040F04000A062E06A40F00400E0622046A6
:1002C00000F0C0F970BD70B50446656A284600F0BC
:1002D000B8F970BD38B504460025002000902068AC
:1002E000806800F0010080BB2068806840F0010059
:1002F00021688860164800681649B0FBF1F000904C
:1003000002E00098401E009000980028F9D100F00B
:10031000C9FE054613E000F0C5FE401B02280ED9B9
:10032000A06A40F01000A062E06A40F00100E062C4
:1003300000BF002084F8240000BF012038BD2068E1
:10034000806800F001000028E5D00020F6E70000FA
:100350004800002040420F0000BFFEE710B50248F1
:1003600000F0ACFB10BD00007C01002010B502487D
:1003700000F0A4FB10BD0000D803002010B5024817
:1003800000F09CFB10BD00009403002010B5024853
:1003900000F094FB10BD00005003002010B502488F
:1003A00000F08CFB10BD00000C03002030B590F86D
:1003B00040500124AC40C56B6C60046863604468C5
:1003C000102C04D10468A2600468E16003E00468B2
:1003D000A1600468E26030BD70470000F8B50446D3
:1003E00000260020009000BF94F82400012801D1CD
:1003F0000220F8BD012084F8240000BF2046FFF74A
:1004000001FF0646002E62D1A06A20F4885040F019
:100410000200A062022000F075FF30490968B1FBBC
:10042000F0F04000009002E00098401E009000981C
:100430000028F9D12046FFF74DFF2068806840F082
:1004400008002168886000F02DFE054611E000F0EC
:1004500029FE401B0A280CD9A06A20F0020040F0B7
:100460001000A06200BF002084F8240000BF01201B
:10047000BFE72068806800F008000028E7D1206806
:10048000806840F004002168886000F00BFE05469B
:1004900011E000F007FE401B0A280CD9A06A20F0EA
:1004A000020040F01000A06200BF002084F8240089
:1004B00000BF01209DE72068806800F0040000284C
:1004C000E7D1A06A20F0020040F00100A06200BF66
:1004D000002084F8240000BF30468AE7480000204E
:1004E00038B5024600230020009000BF92F8240097
:1004F000012801D1022038BD012082F8240000BF6C
:100500004868072812D21068406B0C79641E04EB0F
:1005100084051F24AC40A0430D796D1E05EB8505B5
:100520000C68AC4020431468606327E048680D28DD
:1005300012D21068006B0C79E41F04EB84051F24B1
:10054000AC40A0430D79ED1F05EB85050C68AC4070
:1005500020431468206311E01068C06A0C790D3CD8
:1005600004EB84051F24AC40A0430D790D3D05EB41
:1005700085050C68AC4020431468E06208680A28CE
:1005800012D31068C0680C780A3C04EB44050724B9
:10059000AC40A0430D780A3D05EB45058C68AC40A6
:1005A00020431468E0600FE0106800690C7804EBE9
:1005B00044050724AC40A0430D7805EB45058C6845
:1005C000AC402043146820610868102802D00868F5
:1005D000112827D1174C1068A0421ED110688068DE
:1005E00000F40000F0B91068806840F4000014685E
:1005F000A0600868102815D10F4800680F4CB0FBA8
:10060000F4F000EB80004000009002E00098401EF3
:10061000009000980028F9D104E0906A40F0200092
:100620009062012300BF002082F8240000BF18461A
:1006300061E70000002401404800002040420F0014
:1006400070477047704700002DE9F04104460027CD
:1006500000250026A84614B90120BDE8F081A06855
:1006600010B1606900B100BFA06A30B90020E0623B
:1006700084F82400204600F089F82046FFF7C2FDE8
:100680000746A06A00F01000002873D1002F71D136
:10069000A06A20F4885040F00200A062E16960681E
:1006A0000843E16840EA41000643A068B0F5807F56
:1006B00002D0A068012802D14FF4807000E0002031
:1006C00005436069012811D1E06838B9A069401E6E
:1006D0004FF4006141EA4030054307E0A06A40F072
:1006E0002000A062E06A40F00100E06220684068FB
:1006F00020F46940284321684860206880682149C7
:100700000840304321688860A068B0F5807F02D03F
:10071000A068012802D14FF4807000E00020B0F5FD
:10072000807F03D1208A401E4FEA00582068C06AAB
:1007300020F4700040EA08002168C86220688068E0
:1007400011490840B04208D10020E062A06A20F0C0
:10075000020040F00100A06211E0A06A20F0020057
:1007600040F01000A062E06A40F00100E062012762
:1007700005E0FFE7A06A40F01000A06201273846BC
:100780006BE70000FDF7E1FFFE0E1FFF10B586B01E
:10079000044624492068884242D100BF224880692B
:1007A00040F40070204988610846806900F40070B8
:1007B000019000BF00BFFC2002900320039002A91B
:1007C0001A4800F0CFFA302002900320039002A9CB
:1007D000174800F0C7FA03200290039002A91548B9
:1007E00000F0C0FA14481549086000204860002154
:1007F000124881608021C160490001618900416126
:10080000202181610021C16100F026FA18B1E121A7
:100810000BA003F0CBF900BF08482062446200BF80
:1008200006B010BD00240140001002400008014045
:1008300000100140000C0140080002407C01002033
:100840002E2E2F5372632F6164632E63000000000D
:100850002DE9F04104460D46164600275749206809
:10086000884203D056492068884205D15348001D6C
:10087000006800F4702000E0002000287ED100BF56
:1008800094F82400012802D10220BDE8F081012063
:1008900084F8240000BF2046FFF71CFD0746002F08
:1008A0006DD1A06A40F60161884340F48070A06277
:1008B00043492068884209D14048001D006800F47F
:1008C000702008B9012002E0002000E0012078B18A
:1008D000A06A20F48010A0622068406800F4806064
:1008E00000B3A06A20F4005040F48050A06219E0E8
:1008F000A06A40F48010A06230492068884203D08A
:100900002F492068884205D12C48001D006800F45A
:10091000806000E0002028B1A06A20F4005040F47C
:100920008050A062A06A00F4805020B1E06A20F0FC
:100930000600E06201E00020E06200BF002084F8D1
:10094000240000BF1F48216A88621F48216AC862CC
:100950001E48216A08636FF0020021680860206861
:10096000806840F4807021688860226802F14C0140
:1009700033462A46206A00F0A7F901E01AE014E0A5
:100980002068806800F46020B0F5602F06D12068F0
:10099000806840F4A000216888600CE020688068CE
:1009A00040F480102168886005E000BF002084F8D2
:1009B000240000E00127384667E7000000240140DA
:1009C0000028014057020008C7020008A9020008D9
:1009D000014600200A68126822F00E020B681A60B5
:1009E0000A68126822F001020B681A6091F8403020
:1009F00001229A40CB6B5A60012281F8212000BF6E
:100A0000002281F8202000BF7047000070B5044626
:100A1000002594F82100022803D00420A0630125BA
:100A200048E02068006820F00E0021680860206817
:100A3000006820F00100216808601F492068884292
:100A400001D1012026E01C4914312068884201D1DF
:100A500010201FE0184928312068884201D18015F4
:100A600018E015493C312068884201D1801411E01A
:100A7000114950312068884202D14FF4803009E09A
:100A80000D4964312068884202D14FF4801001E0A2
:100A90004FF08070084908394860012084F821002F
:100AA00000BF002084F8200000BF606B10B120461A
:100AB000616B8847284670BD0800024070B5044647
:100AC000E06B05682068066894F8401004208840B0
:100AD0002840002846D006F00400002842D02068B4
:100AE000006800F0200028B92068006820F00400A9
:100AF0002168086057492068884201D1042027E016
:100B0000544914312068884201D1402020E05149E5
:100B100028312068884201D1001519E04D493C3147
:100B20002068884202D14FF4804011E04949503199
:100B30002068884202D14FF4802009E045496431A1
:100B40002068884202D14FF4800001E04FF08060BD
:100B5000404908394860E06A00287AD02046E16AB6
:100B6000884776E094F84010022088402840A0B3DF
:100B700006F0020088B32068006800F0200040B949
:100B80002068006820F00A0021680860012084F8CD
:100B9000210030492068884201D1022028E02D49F7
:100BA00014312068884201D1202021E029492831D0
:100BB0002068884201D140151AE026493C3120685E
:100BC000884202D14FF4005012E02249503120688F
:100BD000884203D14FF400300AE017E01D49643128
:100BE0002068884202D14FF4001001E04FF00070FD
:100BF00018490839486000BF002084F8200000BF71
:100C0000A06A30B32046A16A884722E094F84010D9
:100C1000082088402840E0B106F00800C8B12068EC
:100C2000006820F00E002168086094F84010012050
:100C30008840E16B48600120A06384F8210000BF78
:100C4000002084F8200000BF206B10B12046216BEB
:100C5000884770BD080002400146002209B9012002
:100C60007047184B0868C01A1423B0FBF3F08000DB
:100C7000086414480838C863022081F82100086815
:100C8000026843F6F0708243D1E901031843CB6850
:100C900018430B6918434B6918438B691843CB6998
:100CA000184302430868026000208862C862086333
:100CB00048638863012081F82100002081F820002A
:100CC00000BFCDE7080002402DE9F04104460D4683
:100CD00016461F464FF0000800BF94F82000012878
:100CE00002D10220BDE8F081012084F8200000BF7D
:100CF00094F8210001282CD1022084F82100002042
:100D0000A0632068006820F00100216808603B466D
:100D1000324629462046FFF749FBE06A30B1206899
:100D2000006840F00E00216808600BE02068006851
:100D300020F00400216808602068006840F00A0084
:100D4000216808602068006840F0010021680860A0
:100D500006E000BF002084F8200000BF4FF002082A
:100D60004046BFE72DE9F847034600240020002550
:100D70008446002700226EE14FF0010808FA02F4D1
:100D8000D1F8008008EA0400A0427DD1DFF8D0A2AB
:100D9000D1F80480A8EB0A09D0453AD014DCB8F1A8
:100DA000030F50D009DCB8F1000F31D0B8F1010FBA
:100DB0001CD0B8F1020F49D120E0B8F1110F18D0C2
:100DC000B8F1120F42D11EE0B9F5881F25D006DC1C
:100DD000B9F5803F20D0B9F5801F37D11AE0B9F5B9
:100DE000001F18D0B9F5041F30D117E0D1F80CC09E
:100DF0002DE0D1F80C8008F1040C28E0D1F80C802B
:100E000008F1080C23E0D1F80C8008F10C0C1EE06E
:100E100000BF00BF00BF00BF00BF00BFD1F8088007
:100E2000B8F1000F02D14FF0040C0BE0D1F80880AC
:100E3000B8F1010F03D14FF0080C1C6102E04FF034
:100E4000080C5C6103E04FF0000C00E000BF00BF45
:100E5000FF2801D8984601E003F104084646FF2820
:100E600002D84FEA820803E0A2F108084FEA880896
:100E70004746D6F800804FF00F0909FA07F928EA2B
:100E800009080CFA07F900E088E048EA0908C6F802
:100E90000080D1F8048008F08058B8F1805F7DD1DF
:100EA00000BFDFF8C081D8F8188048F00108DFF8EB
:100EB000B491C9F81880C846D8F8188008F001081D
:100EC000CDF8008000BF00BF4FEAB9384FEA920961
:100ED00058F829504FEA82784FEA18794FF00F08F6
:100EE00008FA09F825EA0805DFF87C81434502D1B4
:100EF0004FF0000816E0DFF87481434502D14FF04F
:100F000001080FE0DFF86881434502D14FF0020885
:100F100008E0DFF86081434502D14FF0030801E0AB
:100F20004FF004084FEA82794FEA197908FA09F874
:100F300048EA0505DFF840814FEA920948F8295050
:100F4000D1F8048008F48038B8F5803F0AD1DFF882
:100F50002C81D8F8008048EA0008DFF82091C9F811
:100F6000008009E0DFF81481D8F8008028EA000842
:100F7000DFF80891C9F80080D1F8048008F400383F
:100F8000B8F5003F10D1DFF8F48008F10408D8F874
:100F9000008048EA0008DFF8E49000E05AE009F138
:100FA0000409C9F800800DE0DFF8D08008F10408DA
:100FB000D8F8008028EA0008DFF8C09009F1040999
:100FC000C9F80080D1F8048008F48018B8F5801FB3
:100FD0000ED1DFF8A88008F10808D8F8008048EAA8
:100FE0000008DFF8989009F10809C9F800800DE0C1
:100FF000DFF8888008F10808D8F8008028EA00089F
:10100000DFF8789009F10809C9F80080D1F8048068
:1010100008F40018B8F5001F0ED1DFF8608008F161
:101020000C08D8F8008048EA0008DFF8509009F171
:101030000C09C9F800800DE0DFF8408008F10C08C9
:10104000D8F8008028EA0008DFF8309009F10C0990
:10105000C9F80080521C102AFFF48EAEBDE8F88754
:10106000000011100010024000080140000C014077
:10107000001001400014014008000140000401403C
:10108000024693680B400BB1012000E0002070473E
:10109000C2684A40C26070470AB1016101E00B04B6
:1010A0000361704701480068704700003C00002061
:1010B00070B504460CB9012070BD4CF6CC402168D7
:1010C000086045F2555021680860D4E90010486076
:1010D0002168A0688860FFF7E5FF054606E0FFF796
:1010E000E1FF401B302801D90320E5E72068C068F4
:1010F0000028F4D14AF6AA20216808600020DBE726
:1011000001464AF6AA200A681060002070470000D5
:10111000034800680349097808440149086070479A
:101120003C0000204400002010B50848006840F052
:10113000100006490860032000F0D0F80F2000F0EE
:1011400007F800F02BF8002010BD0000002002403E
:1011500070B504460E4800784FF47A71B1FBF0F098
:101160000C490968B1FBF0F5284600F069FD08B1AB
:10117000012070BD102C07D200222146501E00F025
:101180006EF80548046001E00120F2E70020F0E776
:1011900044000020480000204000002008B500BFA7
:1011A0002648806940F0010024498861084680692A
:1011B00000F00100009000BF00BF00BF0846C069FA
:1011C00040F08050C8610846C06900F0805000902F
:1011D00000BF00BF032000F081F8002211466FF02D
:1011E0000B0000F03CF8002211466FF00A0000F0FE
:1011F00036F8002211466FF0090000F030F80022A6
:101200001146501F00F02BF800221146101F00F06D
:1012100026F800220F21901E00F021F800220F2155
:10122000501E00F01CF800BF0549486820F0E0603F
:1012300040F00070486000BF08BD00000010024090
:101240000000014000BF00F01F020121914042094F
:10125000920002F1E022C2F8001100BF70472DE9B0
:10126000F05F80460D461646002701F0BBFD07469D
:1012700039462A46334601F00700C0F1070ABAF1A1
:10128000040F02D94FF0040A01E0C0F1070AD14669
:1012900000F1040ABAF1070F02D24FF0000A01E090
:1012A000A0F1030AD4464FF0010A0AFA09FAAAF19A
:1012B000010A0AEA020A0AFA0CFA4FF0010B0BFAC9
:1012C0000CFBABF1010B0BEA030B4AEA0B042146C2
:1012D000404601F08FFDBDE8F09F000000BF00F028
:1012E0000702064B19684FF6FF031940044B0B43E6
:1012F00043EA0221014B196000BF70470CED00E08A
:101300000000FA052DE9F04385B006463DA30FCB5A
:1013100001AC0FC43FA0006800904FF0000800250A
:1013200000270024A146012E30D0022E58D0102EC6
:1013300061D139484468006800F0807000B301A8AA
:10134000C4F38341475C04F4803070B13248406894
:10135000C0F340401DF8008004F4803040B12F48B5
:10136000B0FBF8F000FB07F502E02D4807FB00F5A5
:101370002948406800F48000B0F5800F01D1A946EB
:1013800003E068000321B0FBF1F935E02248046A6C
:1013900004F44070B0F5807F05D104F0020010B174
:1013A0004FF400491BE004F44070B0F5007F07D112
:1013B0001948406A00F0020010B149F640490EE0B9
:1013C00004F44070B0F5407F07D11348006800F482
:1013D000003010B14FF2244901E04FF000090BE05A
:1013E00000F0A0F90C494968C1F38131491C49005A
:1013F000B0FBF1F900E000BF00BF484605B0BDE812
:10140000F083000002030405060708090A0B0C0D0F
:101410000E0F1010010200000010024000127A00AE
:1014200000093D00F8B5044600260025207800F0AC
:10143000010000286BD000274348C06900F08050AD
:1014400070B900BF4048C06940F080503E49C86153
:101450000846C06900F08050009000BF00BF01271F
:101460003A48006800F48070B0B93848006840F429
:10147000807036490860FFF715FE064606E0FFF764
:1014800011FE801B642801D90320F8BD2F48006895
:1014900000F480700028F2D02B48006A00F44075F8
:1014A0002DB3A08800F44070A84220D02648006ADE
:1014B00020F4407501202649086000200860224879
:1014C000056205F0010090B1FFF7ECFD064608E06B
:1014D000FFF7E8FD801B41F28831884201D90320E3
:1014E000D3E71948006A00F002000028F0D016483F
:1014F000006A20F440706168084313490862012FB4
:1015000004D10846C06920F08050C86100BF20782F
:1015100000F00200022807D10B48406820F4404048
:10152000A168084308494860207800F0100010289E
:1015300007D10548406820F48000E168084302496B
:1015400048600020A1E70000001002400070004049
:101550004004424270B504460D46002662480068C9
:1015600000F00700A8420ED25F48006820F0070094
:1015700028435D4908600846006800F00700A8425B
:1015800001D0012070BD207800F00200022807D1B0
:101590005648406820F0F000A1680843534948606D
:1015A000207800F0010000285DD06068012806D195
:1015B0004E48006800F4003090B90120E2E760680E
:1015C000022806D14948006800F0007040B90120A7
:1015D000D8E74648006800F0020008B90120D1E7CA
:1015E0004248406820F00300616808433F49486072
:1015F000FFF758FD06466068012810D108E0FFF7A4
:1016000051FD801B41F28831884201D90320B9E79E
:101610003648406800F00C000428F0D123E06068F0
:10162000022810D108E0FFF73DFD801B41F2883110
:10163000884201D90320A5E72C48406800F00C003F
:101640000828F0D10FE008E0FFF72CFD801B41F2E5
:101650008831884201D9032094E72448406800F08B
:101660000C000028F0D12048006800F00700A842D4
:101670000ED91D48006820F0070028431A49086069
:101680000846006800F00700A84201D0012079E771
:10169000207800F00400042807D11448406820F4A2
:1016A000E060E168084311494860207800F00800D4
:1016B000082808D10D48406820F46050216940EAAC
:1016C000C1000A49486000F03DF808494968C1F383
:1016D0000311074A515CC840064908600F20FFF714
:1016E00037FD00204EE700000020024000100240BD
:1016F000904A000848000020014800687047000038
:101700004800002000B5FFF7F7FF04494968C1F31E
:101710000221034A515CC84000BD00000010024095
:10172000A04A000800B5FFF7E7FF04494968C1F384
:10173000C221034A515CC84000BD000000100240B5
:10174000A04A0008F0B585B00FF26C0C9CE8E010E0
:1017500001A8A0E8E0101CA52D680095002100223A
:10176000002300240020194D696801F00C05F5B133
:10177000042D02D0082D19D101E0154819E001AD62
:10178000C1F38346AC5D01F4803555B10F4D6D68F2
:10179000C5F340451DF805200D4D6543B5FBF2F33B
:1017A00002E00C4D04FB05F3184602E000BF0848B8
:1017B00000BF00BF05B0F0BD02030405060708091D
:1017C0000A0B0C0D0E0F1010010200000010024059
:1017D00000127A0000093D00F8B504460025207883
:1017E00000F00100002878D0F848406800F00C00B4
:1017F00004280CD0F548406800F00C00082811D1EE
:10180000F248406800F48030B0F5803F0AD1EF48DC
:10181000006800F4003000285FD0606800285CD1C8
:101820000120F8BD00BF6068B0F5803F06D1E748F1
:10183000006840F48030E549086028E0606858B9E5
:10184000E248006820F48030E049086008460068FB
:1018500020F4802008601AE06068B0F5A02F0BD15A
:10186000DA48006840F48020D849086008460068DB
:1018700040F4803008600AE0D448006820F48030EA
:10188000D24908600846006820F48020086000BF44
:10189000606888B1FFF706FC054606E0FFF702FC2A
:1018A000401B642801D90320BBE7C848006800F446
:1018B00000300028F2D010E0FFF7F4FB054606E008
:1018C000FFF7F0FB401B642801D90320A9E7BF48BC
:1018D000006800F400300028F2D1207800F0020007
:1018E000022857D1B948406800F00C0050B1B74801
:1018F000406800F00C00082818D1B448406800F493
:10190000803098B9B148006800F0020020B1206929
:10191000012801D0012084E7AC48006820F0F800DD
:10192000616940EAC100A949086033E02069E8B173
:101930000120A7490860FFF7B5FB054606E0FFF761
:10194000B1FB401B022801D903206AE79F480068C9
:1019500000F002000028F2D09C48006820F0F80057
:10196000616940EAC1009949086013E00020984984
:101970000860FFF797FB054606E0FFF793FB401B67
:10198000022801D903204CE79048006800F00200CB
:101990000028F2D1207800F0080008282DD1A06995
:1019A000B8B101208B490860FFF77CFB054606E0D3
:1019B000FFF778FB401B022801D9032031E7834859
:1019C000406A00F002000028F2D0012001F026FA5F
:1019D00013E000207F490860FFF764FB054606E03E
:1019E000FFF760FB401B022801D9032019E7774865
:1019F000406A00F002000028F2D1207800F00400D4
:101A0000042873D100267148C06900F0805070B975
:101A100000BF6E48C06940F080506C49C8610846FC
:101A2000C06900F08050009000BF00BF01266A48E6
:101A3000006800F48070B0B96748006840F48070B6
:101A400065490860FFF72EFB054606E0FFF72AFB15
:101A5000401B642801D90320E3E65F48006800F4D6
:101A600080700028F2D000BFE068012806D15748F6
:101A7000006A40F001005549086227E0E06858B963
:101A80005248006A20F00100504908620846006A86
:101A900020F00400086219E0E06805280BD14B48EB
:101AA000006A40F00400494908620846006A40F0B4
:101AB000010008620AE04548006A20F0010043493D
:101AC00008620846006A20F00400086200BFE0686F
:101AD000A0B1FFF7E7FA054609E0FFF7E3FA401B7C
:101AE00041F28831884202D903209AE622E0374841
:101AF000006A00F002000028EFD012E0FFF7D2FAEF
:101B0000054608E0FFF7CEFA401B41F288318842D3
:101B100001D9032085E62D48006A00F00200002864
:101B2000F0D1012E05D12948C06920F08050274905
:101B3000C86100BFE069C8B32448406800F00C00E9
:101B4000082860D0E069022848D1002020490866B2
:101B5000FFF7A8FA054606E0FFF7A4FA401B0228A3
:101B600001D903205DE61948006800F000700028E4
:101B7000F2D1206AB0F5803F07D11448406820F4C4
:101B80000030A168084311494860D4E908010843BE
:101B90000E49496821F4741108430C49486001203A
:101BA0000B490866FFF77EFA054607E02DE0FFF7D0
:101BB00079FA401B022801D9032032E60348006865
:101BC00000F000700028F2D01FE00000001002407A
:101BD00000004242800442420070004000200C4954
:101BE0000866FFF75FFA054606E0FFF75BFA401B61
:101BF000022801D9032014E60648006800F00070AE
:101C00000028F2D101E001200BE6002009E60000E7
:101C10000000424200100240042808D14FF0E021A9
:101C2000096941F004014FF0E022116107E04FF033
:101C3000E021096921F004014FF0E02211617047B1
:101C400070B504462546681EB0F1807F01D301209F
:101C50000FE0681E4FF0E02148610F214FF0FF3088
:101C600001F0C8F800204FF0E021886107200861EA
:101C7000002070BD70477047024600BF92F83C00DC
:101C8000012801D102207047012082F83C0000BFEA
:101C9000022082F83D001068406820F07000136850
:101CA0005860106840680B681843136858601068E3
:101CB000806820F0800013689860106880684B6826
:101CC000184313689860012082F83D0000BF00208F
:101CD00082F83C0000BF00BFD5E710B504460CB940
:101CE000012010BD94F83D0028B9002084F83C0084
:101CF000204600F00DF8022084F83D00211D2068E8
:101D000001F0C2FB012084F83D000020E9E700005B
:101D100038B504462068B0F1804F16D100BF1D4889
:101D2000C06940F001001B49C8610846C06900F065
:101D30000100009000BF00BF002205211C20FFF71A
:101D40008EFA1C20FFF77EFA23E0134920688842B0
:101D50000DD100BF0F48C06940F002000D49C861B5
:101D60000846C06900F00200009000BF11E00B4976
:101D7000206888420DD100BF0648C06940F00400C9
:101D80000449C8610846C06900F00400009000BF23
:101D900000BF38BD001002400004004000080040B1
:101DA00001460868C06840F001000A68D060086811
:101DB000006840F001000A681060002070472DE9BB
:101DC000F04104460D46002600BF94F83C0001286F
:101DD00002D10220BDE8F081012084F83C0000BF60
:101DE000022084F83D002068866826F0770626F4F5
:101DF0007F4620688660286850283BD00CDC20286D
:101E000060D004DC002853D0102865D155E030287C
:101E10005DD0402860D141E0602835D070280DD0D9
:101E2000B0F5805F03D0B0F5005F55D115E02068B4
:101E3000806820F00700216888604EE0D5E9021331
:101E40006A68206801F05AFB2068866826F07706E9
:101E500046F07706206886603FE0D5E902136A689D
:101E6000206801F04BFB2068806840F480402168C6
:101E7000886032E0EA686968206801F01DFC502142
:101E8000206801F047FB28E0EA686968206801F0F3
:101E900028FC6021206801F03DFB1EE0EA686968CB
:101EA000206801F009FC4021206801F033FB14E0B8
:101EB0000021206801F02EFB0FE01021206801F0C6
:101EC00029FB0AE02021206801F024FB05E03021F5
:101ED000206801F01FFB00E000BF00BF012084F874
:101EE0003D0000BF002084F83C0000BF00BF71E748
:101EF000704710B5044620680069C0F34000D8B1AF
:101F00002068C068C0F34000B0B16FF002002168E3
:101F10000861012020772068806900F0030018B173
:101F20002046FFF7E5FF05E0204600F0EBF82046ED
:101F300000F088F90020207720680069C0F3800055
:101F4000D8B12068C068C0F38000B0B16FF0040061
:101F500021680861022020772068806900F44070C1
:101F600018B12046FFF7C4FF05E0204600F0CAF88C
:101F7000204600F067F90020207720680069C0F350
:101F8000C000D8B12068C068C0F3C000B0B16FF025
:101F9000080021680861042020772068C06900F0EB
:101FA000030018B12046FFF7A3FF05E0204600F02C
:101FB000A9F8204600F046F9002020772068006943
:101FC000C0F30010D8B12068C068C0F30010B0B1F1
:101FD0006FF0100021680861082020772068C06930
:101FE00000F4407018B12046FFF782FF05E020465C
:101FF00000F088F8204600F025F9002020772068BE
:10200000006900F0010058B12068C06800F00100CC
:1020100030B16FF0010021680861204600F013F92B
:1020200020680069C0F3C01058B12068C068C0F3D0
:10203000C01030B16FF08000216808612046FFF7C2
:1020400019FE20680069C0F3801058B12068C0688C
:10205000C0F3801030B16FF0400021680861204665
:1020600000F0F2F820680069C0F3401058B1206811
:10207000C068C0F3401030B16FF0200021680861E3
:102080002046FFF7F8FD10BD1FB50446184920682B
:10209000884214D14FF450700090022001900390B8
:1020A00069461448FEF75EFE00BF1349486820F4F5
:1020B000406040F0E06040F44060486016E00F4946
:1020C0002068884212D14FF43040009002200190E5
:1020D000039069460A48FEF745FE00BF0649486876
:1020E00040F0E06040F48050486000BF1FBD000039
:1020F00000040040001001400000014000080040C2
:1021000000140140704770B504460D46164600BFE6
:1021100094F83C00012801D1022070BD012084F810
:102120003C0000BF022084F83D0036B1042E1BD0D5
:10213000082E31D00C2E5ED145E02946206801F0F2
:10214000F3F92068806940F0080021688861206800
:10215000806920F00400216888612068806929690D
:1021600008432168886147E02946206801F00EFA9B
:102170002068806940F40060216888612068806977
:1021800020F480602168886120688069296940EABC
:102190000120216888612FE02946206801F02EFA8D
:1021A0002068C06940F008002168C8612068C069E3
:1021B00020F004002168C8612068C06929690843CB
:1021C0002168C86118E02946206801F04DFA2068AE
:1021D000C06940F400602168C8612068C06920F4CB
:1021E00080602168C8612068C069296940EA0120CF
:1021F0002168C86100E000BF00BF012084F83D00F5
:1022000000BF002084F83C0000BF00BF85E710B588
:1022100004460CB9012010BD94F83D0028B90020F7
:1022200084F83C00204600F00CF8022084F83D00C1
:10223000211D206801F028F9012084F83D000020CC
:10224000E9E7704770477047704770B5044600254E
:1022500020684069C0F3C01594F8390021280ED1D8
:102260006DB12068406920F0800021684861206BD2
:1022700010B1206BFEF7ACFB204601F0C4FA2068D9
:102280004069C0F3801594F83A0022280ED16DB150
:102290002068406920F0400021684861606B10B1FF
:1022A000606BFEF795FB204601F08DFA002070BDB3
:1022B000704700002DE9F047044620680568206853
:1022C000C668206847694FF00008C14605F00F084E
:1022D000B8F1000F0AD105F0200038B106F0200057
:1022E00020B1204601F099FABDE8F087B8F1000F5F
:1022F0006DD007F0010018B906F49070002866D080
:1023000005F0010030B106F4807018B1E06B40F0C8
:102310000100E06305F0040030B107F0010018B1DE
:10232000E06B40F00200E06305F0020030B107F01E
:10233000010018B1E06B40F00400E06305F0080014
:1023400030B107F0010018B1E06B40F00800E06325
:10235000E06B68B305F0200028B106F0200010B152
:10236000204601F05AFA20684069C0F38019E06BFA
:1023700000F0080010B9B9F1000F22D0204601F09A
:1023800022FA2068406900F04000B0B1206840693E
:1023900020F0400021684861606B50B11748616BC4
:1023A0004863606BFEF732FB10B1606B416B88478E
:1023B0000CE02046FFF77CFF08E02046FFF778FF9F
:1023C00004E02046FFF774FF0020E0638CE705F08F
:1023D000800030B106F0800018B1204601F054FBB7
:1023E00082E705F0400030B106F0400018B1204609
:1023F00001F0F9F978E700BF76E700000F37000831
:1024000010B504460CB9012010BDA06900B100E070
:1024100000BF94F8390028B9002084F8380020461D
:1024200000F028F8242084F839002068C06820F4DF
:1024300000502168C860204601F042FA2068006917
:1024400020F49040216808612068406920F02A004B
:10245000216848612068C06840F400502168C86065
:102460000020E063202084F8390084F83A0000203E
:10247000CAE7000010B586B0044669492068884262
:1024800063D100BF6748806940F480406549886136
:102490000846806900F48040019000BF00BF4815E5
:1024A0000290022003900320059002A95E48FEF7E7
:1024B00059FC4FF48060029000200390049002A920
:1024C0005948FEF74FFC59485949086000204860B8
:1024D0000021574881608021C16000210161416174
:1024E000202181610021C161FEF7B6FB18B1902166
:1024F00050A001F05BFB00BF4D486063446200BF29
:102500004A4814384F4908601020486000214D485F
:1025100081608021C1600021016141618161C161EF
:10252000FEF79AFB18B1A02142A001F03FFB00BFCB
:1025300044482063446200BF002205212520FEF7A5
:102540008EFE2520FEF77EFE67E03F492068884228
:1025500063D100BF3348C06940F480203149C8616D
:102560000846C06900F48020019000BF00BF081534
:102570000290022003900320059002A93348FEF741
:10258000F1FB4FF40060029000200390049002A938
:102590002E48FEF7E7FB254828382D490860002023
:1025A000486000212A4881608021C16000210161CA
:1025B00041618161C161FEF74FFB18B1CE211DA0C1
:1025C00001F0F4FA00BF22486063446200BF17487C
:1025D0003C38204908601020486000211D48816077
:1025E0008021C160002101614161202181610021C0
:1025F000C161FEF731FB18B1DE210EA001F0D6FA61
:1026000000BF14482063446200BF00220521272038
:10261000FEF725FE2720FEF715FE06B010BD0000D0
:1026200000380140001002400008014058000240FC
:102630000C0300202E2E2F5372632F75736172745A
:102640002E6300005003002000480040000C0140B1
:1026500094030020D803002077B581B004461546C6
:1026600094F83A00202850D1029800B115B9012001
:1026700004B070BD00BF94F83800012801D10220D9
:10268000F6E7012084F8380000BF0298A062A58513
:102690000020E063222084F83A001D48616B8862C4
:1026A0001C48616BC8621C48616B08630020616B49
:1026B000486302AE32682368191D2B46606BFEF733
:1026C00003FB00BF00200090206800680090206895
:1026D0004068009000BF00BF00BF002084F83800B1
:1026E00000BF2068C06840F480702168C86020681E
:1026F000406940F00100216848612068406940F06D
:102700004000216848610020B2E70220B0E70000E5
:1027100073370008B937000823370008704770473F
:10272000704700BFFEE700000EB5504850490860F2
:1027300081154F4881600121C160002141614FF442
:102740006021C16100204A4948600A21484801616E
:10275000FDF77AFF18B14F2146A001F027FA0220B9
:102760000090012001900720029069464048FDF743
:10277000B7FE18B159213FA001F018FA03200090CC
:102780000220019069463A48FDF7AAFE18B162217D
:1027900038A001F00BFA0420009003200190694654
:1027A0003348FDF79DFE18B16B2132A001F0FEF910
:1027B000052000900420019069462D48FDF790FE09
:1027C00018B174212BA001F0F1F90620009005202A
:1027D000019069462648FDF783FE18B17D2125A0AA
:1027E00001F0E4F907200090062001906946204896
:1027F000FDF776FE18B186211EA001F0D7F908205A
:102800000090072001900020029069461848FDF7CB
:1028100067FE18B1902117A001F0C8F909200090B7
:102820000820019069461248FDF75AFE18B1992117
:1028300010A001F0BBF90E2000900920019069461C
:102840000B48FDF74DFE18B1A2210AA001F0AEF928
:102850000F2000900A20019069460548FDF740FED0
:1028600018B1AB2103A001F0A1F90EBD0024014075
:102870004C0100202E2E2F5372632F6164632E6350
:102880000000000008B500BF1A48406940F0010090
:10289000184948610846406900F00100009000BFF7
:1028A00000BF002205210B20FEF7D9FC0B20FEF70C
:1028B000C9FC002205210C20FEF7D1FC0C20FEF7FC
:1028C000C1FC002205210D20FEF7C9FC0D20FEF7FA
:1028D000B9FC002205210E20FEF7C1FC0E20FEF7F8
:1028E000B1FC002205210F20FEF7B9FC0F20FEF7F6
:1028F000A9FC08BD0010024000B58FB01422124997
:102900000AA8FDF75BFC00210AA801F033FA0F4981
:10291000086014220C49143105A8FDF74FFC002172
:1029200005A801F027FA0A4908601422064928314F
:102930006846FDF743FC0021684601F01BFA054993
:1029400008600FB000BD0000544A000804000020D9
:10295000080000200C00002000B585B000BF5B48D7
:10296000806940F04000594988610846806900F05C
:102970004000009000BF00BF00BF0846806940F0E3
:10298000040088610846806900F00400009000BFE0
:1029900000BF00BF0846806940F01000886108460B
:1029A000806900F01000009000BF00BF00BF084623
:1029B000806940F0080088610846806900F00800DE
:1029C000009000BF00BF00BF0846806940F02000B3
:1029D00088610846806900F02000009000BF00BFB9
:1029E00000224DF640013A48FEF756FB002246F21F
:1029F000A8013848FEF750FB002244F27C313648EB
:102A0000FEF74AFB002280213448FEF745FB42F2E4
:102A10003F40019000200290039001A92C48FEF74E
:102A2000A1F94DF640000190012002900020039092
:102A30000220049001A92648FEF794F949F250308B
:102A4000019000200290039001A92248FEF78AF924
:102A500046F2A00001900120029000200390022085
:102A6000049001A91B48FEF77DF944F27C300190E7
:102A700001200290002003900220049001A9164832
:102A8000FEF770F94FF490600190002002900390DF
:102A900001A91148FEF766F98020019001200290FB
:102AA000002003900220049001A90C48FEF75AF977
:102AB0000820019001200290002003900320049040
:102AC00001A90448FEF74EF905B000BD0010024010
:102AD00000180140000C01400014014000100140AA
:102AE00010B50848084908600620486040F6FF71A4
:102AF00005488160FEF7DCFA18B1442103A001F01B
:102B000055F810BD00300040C00100202E2E2F537C
:102B100072632F697764672E6300000000B587B089
:102B20004FF0804016490860472048600021144853
:102B300081603121C160002101618161FFF7CDF821
:102B400018B14B210FA001F031F84FF480500390E1
:102B500003A90B48FFF733F918B1512109A001F07F
:102B600025F800200190029001A90548FFF784F89C
:102B700018B1582103A001F019F807B000BD0000FA
:102B8000CC0100202E2E2F5372632F74696D2E639B
:102B90000000000000B58DB02E482F4908600020CD
:102BA000486000212C48816040F60F61C16000211F
:102BB00001618161FFF791F818B16B2127A000F046
:102BC000F5FF4FF48050099009A92348FFF7F7F863
:102BD00018B1712121A000F0E9FF1F48FFF717FB92
:102BE00018B176211DA000F0E1FF002007900890A9
:102BF00007A91948FFF740F818B17D2117A000F088
:102C0000D5FF6020009000200190029004900022E7
:102C100069461148FFF777FA18B186210FA000F036
:102C2000C5FF082269460C48FFF76DFA18B18B21E1
:102C30000AA000F0BBFF0C2269460748FFF763FAC1
:102C400018B1902105A000F0B1FF0348FFF71CFA6E
:102C50000DB000BD000400400C0200202E2E2F53AA
:102C600072632F74696D2E630000000000B58DB093
:102C70002E482F4908600020486000212C488160C0
:102C800040F60F61C160002101618161FFF725F805
:102C900018B1A52127A000F089FF4FF480500990BA
:102CA00009A92348FFF78BF818B1AB2121A000F048
:102CB0007DFF1F48FFF7ABFA18B1B0211DA000F04F
:102CC00075FF00200790089007A91948FEF7D4FF68
:102CD00018B1B72117A000F069FF60200090002014
:102CE000019002900490002269461148FFF70BFA08
:102CF00018B1C0210FA000F059FF042269460C480A
:102D0000FFF701FA18B1C5210AA000F04FFF0C220D
:102D100069460748FFF7F7F918B1CA2105A000F086
:102D200045FF0348FFF7B0F90DB000BD00080040B3
:102D30004C0200202E2E2F5372632F74696D2E6368
:102D40000000000010B50C480C4908604FF4E13059
:102D50004860002109488160C16001610C21416126
:102D600000218161C161FFF74BFB18B1522104A022
:102D700000F01CFF10BD0000003801408C02002054
:102D80002E2E2F5372632F75736172742E630000A1
:102D900010B50C480C4908604FF4E1304860002140
:102DA00009488160C16001610C214161002181619C
:102DB000C161FFF725FB18B1652104A000F0F6FE04
:102DC00010BD000000480040CC0200202E2E2F53E2
:102DD00072632F75736172742E63000000BFFEE78B
:102DE0007047000002480068C0F3022070470000EE
:102DF0000CED00E010B5002807DA0A07140E054AAA
:102E000000F00F031B1FD45403E00A07130E024AFD
:102E1000135410BD18ED00E000E400E008B50849C7
:102E20000968C9084FF47A72B1FBF2F1414300918D
:102E300000BF00BF00994A1E00920029F9D108BDC9
:102E40004800002000BF0A2000F07BFF032000F0B4
:102E5000BFFEB0F5FA6F05DA042000F0B9FEB0F558
:102E6000FA6F07DB75480068322803D87448006899
:102E7000322828D90122D1027248FEF70DF900222A
:102E800008217148FEF708F9002280216F48FEF7FB
:102E900003F9012291036B48FEF7FEF842F210702D
:102EA00000F04FFF032000F093FEB0F5FA6F0ADA4E
:102EB000042000F08DFEB0F5FA6F04DA0122202123
:102EC0006348FEF7E9F8032000F082FEB0F5FA6FE0
:102ED00025DD042000F07CFEB0F5FA6F1FDD002236
:102EE0004FF400615748FEF7D7F8002053490860B7
:102EF00053490860012208215348FEF7CDF800220B
:102F000080215248FEF7C8F800224FF480414D4816
:102F1000FEF7C2F8002220214D48FEF7BDF803203D
:102F200000F056FEB0F5FA6F04DA44480068401C21
:102F300042490860042000F04BFEB0F5FA6F04DA55
:102F40003F480068401C3E490860022000F040FEF7
:102F5000B0F5FA6FBFF677AF0122D1023948FEF71C
:102F60009BF8002208213A48FEF796F800224FF419
:102F700080513448FEF790F800224FF40041314868
:102F8000FEF78AF800224FF400713148FEF784F80A
:102F9000C82000F0D6FE002240212D48FEF77CF824
:102FA000C82000F0CEFE012251032748FEF774F836
:102FB000012291032648FEF76FF841F2883000F0B5
:102FC000C0FE012251032048FEF766F800224FF4AC
:102FD00080411F48FEF760F8002220211A48FEF7C2
:102FE0005BF801201B49087026E0012208211648E1
:102FF000FEF752F8002280211448FEF74DF8002217
:103000004FF480410F48FEF747F84FF4FA7000F094
:1030100098FE002208210C48FEF73EF8002280218D
:103020000A48FEF739F8012291030648FEF734F802
:103030004FF4FA7000F085FED7E700001000002082
:103040001400002000180140000C01400010014055
:10305000001401400000002000BFC82000F071FEF5
:1030600003E04FF47A7000F06CFE97480078002877
:10307000F7D19648007800284ED1954880780028EE
:103080004AD19448006894490968884243D29248DA
:10309000006890490968401A05283CD3002208219D
:1030A0008E48FDF7F9FF012280218D48FDF7F4FFDE
:1030B00000224FF480418B48FDF7EEFF01221103FF
:1030C0008848FDF7E9FF0122D1038648FDF7E4FFB8
:1030D00000224FF400518148FDF7DEFF00224FF43B
:1030E00080418148FDF7D8FF40F6B83000F029FE56
:1030F000012251027C48FDF7CFFFC82000F021FEDD
:10310000012240217848FDF7C7FF1E20774908605B
:1031100001206E49087093E06F4800686D490968A6
:10312000401A022805D271480068401E6F490860A5
:1031300002E01E206D4908606C48006800284ED1EE
:1031400000224FF480516748FDF7A6FF00224FF49C
:1031500000416448FDF7A0FF00224FF4007162486F
:10316000FDF79AFFC82000F0ECFD002240215E48E8
:10317000FDF792FFC82000F0E4FD002056490860EA
:1031800054490860594908605049087001225103A8
:103190005248FDF781FF012291035348FDF77CFF60
:1031A00041F2883000F0CDFD012251034B48FDF77C
:1031B00073FF00224FF480414B48FDF76DFF012261
:1031C00008214648FDF768FF002280214448FDF7AA
:1031D00063FF00224FF480414248FDF75DFF3E4807
:1031E00000683C490968401A02280CD200224FF4BA
:1031F00080513C48FDF750FF00224FF40041394810
:10320000FDF74AFF1CE03448006832490968401A5B
:1032100032280BD2012211033248FDF73DFF002274
:103220004FF400412F48FDF737FF09E00122110359
:103230002C48FDF731FF0122D1032A48FDF72CFF6E
:103240004FF480712548FDF71BFF01280DD10121A6
:103250002448FDF715FF40B9012208212248FDF757
:103260001BFF4FF49670224908604FF400711B4811
:10327000FDF706FF012804D14FF496701C49086041
:1032800007E01B48006820B119480068401E184933
:1032900008601748006820B9002208211248FDF78D
:1032A000FBFE01210F48FDF7EBFE012807D10020AE
:1032B0000F490860002208210B48FDF7EDFE064883
:1032C000006804490860C8E60000002020000020D3
:1032D000201100201C00002030000020000C0140C4
:1032E00000100140001801400014014018000020A7
:1032F0002400002000BF0548FDF702FFC82000F0B1
:1033000020FD40210248FDF7C3FEF4E7C001002084
:103310000018014010B5FDF7FBFE00F023FD10BDC5
:1033200010B594B009200A904FF480300B90002023
:103330000C9001200E90109002201190C103129168
:103340004FF4E01113910AA8FEF746FA18B1CA210A
:103350001BA000F02BFC0F200590022006900020FF
:1033600007904FF48060089000200990022105A882
:10337000FEF7F0F818B1D82111A000F017FC0220D8
:1033800001904FF44040039001A8FEF74BF818B1AC
:10339000DF210BA000F00AFCFEF7AEF94FF47A71C2
:1033A000B0FBF1F42046FEF74BFC0420FEF734FCA2
:1033B00000220F21501EFDF752FF14B010BD000077
:1033C0002E2E2F5372632F6D61696E2E63000000E5
:1033D0001148006840F001000F4908600846406845
:1033E0000E4908400C494860084600680C490840EE
:1033F000094908600846006820F4802008600846F3
:10340000406820F4FE0048604FF41F008860C80345
:103410000449086070470000001002400000FFF8F7
:10342000FFFFF6FE08ED00E010B51348007810B17C
:10343000012818D10DE002211048FDF721FE38B90E
:103440000F480068401C0E49086001200A490870B6
:103450000DE002210948FDF713FE012802D10020EA
:103460000549087003E000200349087000BF00BF51
:103470000448FEF73EFD10BD3A0000200018014050
:1034800030000020CC01002000220268184B984236
:1034900008D0B0F1804F05D0164B984202D0164BA1
:1034A000984203D122F070024B681A43104B9842A5
:1034B00008D0B0F1804F05D00E4B984202D00E4B91
:1034C000984203D122F44072CB681A4322F0800262
:1034D0004B691A4302608B68C3620B688362044BBA
:1034E000984201D10B6903630123436170470000D7
:1034F000002C0140000400400008004030B50C469C
:103500000021816821F47F4142EA032525432943B4
:10351000816030BD0A460021816821F0700142F0CF
:10352000070319438160704730B50024002200234F
:10353000056A25F001050562026A4368846924F082
:10354000700424F003040D682C4322F002028D68FD
:103550002A430D4DA84206D100BF22F00802CD68D3
:103560002A4322F00402084DA84207D123F48073B5
:1035700023F400734D692B438D692B4343608461B1
:103580004D684563026230BD002C014030B5002417
:1035900000220023056A25F010050562026A4368CF
:1035A000846924F4E04424F440740D6844EA05245A
:1035B00022F020028D6842EA05120F4DA84207D181
:1035C00000BF22F08002CD6842EA051222F04002DC
:1035D000094DA84209D123F4806323F400634D69A7
:1035E00043EA85038D6943EA8503436084614D683E
:1035F0008563026230BD0000002C014030B500241C
:1036000000220023056A25F480750562026A43687A
:10361000C46924F0700424F003040D682C4322F4E0
:1036200000728D6842EA05220E4DA84207D100BF04
:1036300022F40062CD6842EA052222F48062094D3C
:10364000A84209D123F4805323F400534D6943EA7F
:1036500005138D6943EA05134360C4614D68C56372
:10366000026230BD002C014030B50022002300244E
:10367000056A25F480550562036A4468C26922F42C
:10368000E04222F440720D6842EA052223F400531E
:103690008D6843EA0533074DA84204D124F48044E1
:1036A0004D6944EA85144460C2614D680564036253
:1036B00030BD0000002C014030B50B4614460021FF
:1036C0000022026A056A25F001050562816921F080
:1036D000F00141EA041122F00A021A4381610262F8
:1036E00030BD30B50B46144600210022056A25F096
:1036F000100505628169026A21F4704141EA0431D2
:1037000022F0A00242EA03128161026230BD70B56C
:1037100005466C6A0020E085E0842046FEF7C8FD7F
:1037200070BD70B506460025746A20684069C0F314
:10373000C01594F83900212805D125B10020E08476
:10374000204600F060F820684069C0F3801594F8C6
:103750003A00222805D125B10020E085204600F05E
:1037600032F8E06B40F01000E0632046FEF7A0FD69
:1037700070BD70B505466C6A2868006800F02000CE
:10378000B0B90020E0852068C06820F4807021680E
:10379000C8602068406920F0010021684861206805
:1037A000406920F0400021684861202084F83A00F8
:1037B0002046FEF7B3FF70BD70B50446656A284623
:1037C000FEF7ADFF70BD0168C96821F49071026811
:1037D000D1600168496921F001010268516120212D
:1037E00080F83A10704710B504462068C06820F091
:1037F00040002168C860202084F839002046FEF788
:103800008FFF002010BD0168C96821F0C001026867
:10381000D160202180F83910704770B5044694F8C3
:103820003A0022284AD1A068B0F5805F13D1A56A7A
:10383000206940B920684068C0F308002880A06A69
:10384000801CA06219E020684068C0B22880A06A8D
:10385000401CA06211E0206938B920684068C1B2FC
:10386000A26A501CA062117007E02068406800F056
:103870007F01A26A501CA0621170E08D401E80B2D0
:10388000E085C8B92068C06820F020002168C860C1
:103890002068C06820F480702168C8602068406992
:1038A00020F0010021684861202084F83A00204679
:1038B000FEF734FF002070BD0020FCE70220FAE78D
:1038C0002DE9F041044600252068006920F44050AD
:1038D000E1680843216808612169A06808436169BB
:1038E000084305432068C06841F20C6188432843BF
:1038F0002168C8602068406920F44070A1690843CD
:10390000216848615F49206888425CD1FDF70AFF61
:1039100000EBC00101EB001061688900B0FBF1F61B
:10392000FDF700FF00EBC00101EB001061688900AA
:10393000B0FBF1F06421B0FBF1F000EBC00101EB52
:103940000010A6EB8000322101EB00106421B0FBD7
:10395000F1F000F0F006FDF7E5FE00EBC00101EB31
:10396000001061688900B0FBF1F06421B0FBF1F058
:1039700006EB0016FDF7D6FE00EBC00101EB0010D0
:1039800061688900B0FBF1F7FDF7CCFE00EBC001E8
:1039900001EB001061688900B0FBF1F06421B0FB1D
:1039A000F1F000EBC00101EB0010A7EB8000322129
:1039B00001EB00106421B0FBF1F000F00F00304487
:1039C000216888605BE0FDF79DFE00EBC00101EB24
:1039D000001061688900B0FBF1F6FDF793FE00EB83
:1039E000C00101EB001061688900B0FBF1F06421B7
:1039F000B0FBF1F000EBC00101EB0010A6EB800082
:103A0000322101EB00106421B0FBF1F000F0F00670
:103A1000FDF778FE00EBC00101EB00106168890042
:103A2000B0FBF1F06421B0FBF1F006EB0016FDF7FE
:103A300069FE00EBC00101EB001061688900B0FB7A
:103A4000F1F7FDF75FFE00EBC00101EB00106168CC
:103A50008900B0FBF1F06421B0FBF1F000EBC00194
:103A600001EB0010A7EB8000322101EB0010642174
:103A7000B0FBF1F000F00F00304421688860BDE831
:103A8000F081000000380140014691F839002128FA
:103A90002CD18868B0F5805F0FD10A6A1088C0F316
:103AA00008000B685860086918B9086A801C086229
:103AB00009E0086A401C086205E00B6A581C0862AD
:103AC00018780B685860C88C401E80B2C88458B9FA
:103AD0000868C06820F080000B68D8600868C0687B
:103AE00040F040000B68D860002070470220FCE7DF
:103AF00010B50248FEF7DEFB10BD00008C0200206E
:103B000038B500242448FEF7D5FB23480068006838
:103B1000C0F3001000283ED000BF002000901E48D7
:103B20000068006800901C4800684068009000BF72
:103B300000BF1A48006840680C280ED81648FEF7E7
:103B400084FB17480078AA2807D1154840785528E3
:103B500003D1134880781349087010480068406802
:103B6000122813D80E480078AA2803D10C484078B0
:103B700055280BD00848FEF768FB002404E000201D
:103B800007490855601CC4B2142CF8D31422044908
:103B90000148FEF761FD38BDCC02002094030020EF
:103BA0001C0400203400002000BFFEE700BFFEE739
:103BB00002E008C8121F08C1002AFAD170477047F6
:103BC000002001E001C1121F002AFBD17047000054
:103BD00010B50246002000210CE001EB810302EB4E
:103BE0004303064C34F81330C3F30B03034498B279
:103BF0004B1CD9B20829F0DBC01010BDAC0000206E
:103C000000BFFDF791FAFFF78BFBFEF7A5FEFEF76D
:103C100039FEFEF789FDFEF763FFFEF77FFFFEF733
:103C2000B9FFFFF723F8FFF78DF8FFF7B1F800228F
:103C30004FF480513248FDF72FFA00224FF4004133
:103C40002F48FDF729FA012251032E48FDF724FAE7
:103C500000224FF480412C48FDF71EFA00224FF459
:103C600000712948FDF718FA002208212648FDF7BF
:103C700013FA002240212448FDF70EFA00222021E9
:103C80002148FDF709FA012210211F48FDF704FA27
:103C9000012208211B48FDF7FFF9002280211B4863
:103CA000FDF7FAF900224FF480411548FDF7F4F9C9
:103CB000012220211348FDF7EFF91548FEF770F8AF
:103CC0001448FCF78BFB502213491248FCF7C0FD47
:103CD00012480068C06840F0100010490968C860C8
:103CE00014220F490D48FEF7B7FC18B198210DA01A
:103CF000FFF75CFFFEF700FE00F02FF800BFFEE7C5
:103D000000180140000C0140001401400010014067
:103D1000CC0100204C010020AC000020CC0200208F
:103D20001C0400202E2E2F5372632F6D61696E2E9E
:103D30006300000001460020842901D0CA1C104401
:103D4000704770B5044625460DB1294600E00121B3
:103D5000084600F0EFFB002070BD10B500F018FC25
:103D6000002010BD10B500F03FFD012801D000F08B
:103D7000F1FC10BDFEB504460D46B4F90800FFF78E
:103D8000D9FF064602A8CDE90060238A9AB22B46E5
:103D9000D4E9001000F0F8FC012801D00020FEBD9D
:103DA0000298FCE72DE9F04105460E461C480768DD
:103DB0001C480068001D00F0D1FA50B9194800688D
:103DC00090F82C1001208840174909688143164853
:103DD0000160681C38B936B112480168091D1348E2
:103DE00000F0FAFA1AE07C190E4800684460BC4200
:103DF00007D20C480168091D0D48006800F0D2FA8E
:103E00000CE008480168091D0A48006800F0CAFA79
:103E100009480068844201D207480460BDE8F08187
:103E20008400002070000020880000200C11002079
:103E30007800002074000020A000002010B5044687
:103E400000F0D6FA23480068401C22490860224846
:103E5000006840B9204804600846006801280DD178
:103E600000F02AF90AE01D48006838B91A480068CD
:103E7000C06AE16A884201D817480460184800689F
:103E8000401C1749086094F82C10012088401549FF
:103E90000968084313490860E16A01EB8101124A8D
:103EA00002EB8100211D00F097FA00F0CBFA0B48DD
:103EB000006868B108480068C06AE16A884207D2B1
:103EC0004FF0805009490860BFF34F8FBFF36F8FE9
:103ED00010BD000080000020700000208C00002039
:103EE0009C000020880000203010002004ED00E03D
:103EF00070B523E000F090FB1348006808B901207A
:103F000000E00020054600F023FDBDB900F070FA86
:103F10000D48C068C468201D00F020FA0B480068F6
:103F2000401E0A4908600A480068401E08490860A7
:103F300000F088FA204600F00DF800BF0448006841
:103F40000028D7D170BD0000F810002080000020AC
:103F50007C00002010B50446206B00F091FA20464A
:103F600000F08EFA10BD000030B54FF440631748E2
:103F700000F007042CB1C01D20F00700134C041BF7
:103F80001B1B0246124C22600024114D6C60D0189D
:103F9000083820F007000F4C206000240D4D2D68DC
:103FA0006C600C4D2D682C601146441A4C60094C15
:103FB00024680C60084D4C682C60084D4C682C60DF
:103FC0004FF00044064D2C6030BD0000300400204E
:103FD0004C000020540000205C000020580000200D
:103FE0006000002000BFFFF783FF0648006801283B
:103FF000F9D94FF0805004490860BFF34F8FBFF3E9
:104000006F8FF0E73010002004ED00E02DE9FF5F36
:1040100081460F469246DDE90E6B109CAAF1010025
:10402000216B01EB800828F0070808F0070008B9A9
:10403000012000E0002050B900BF502080F311881B
:10404000BFF34F8FBFF36F8F00BF00BFFEE70025A8
:1040500007E0795D04F134004155785D00B902E074
:104060006D1C102DF5D300BF002143200155072EF4
:1040700000D30626E66266640020A064201D00F0DE
:104080008EF904F1180000F08AF92461C6F10700E6
:10409000A06164620020E06484F850004946404614
:1040A000039A00F049F92060BBF1000F01D0CBF872
:1040B0000040BDE8FF9F000010B5002407E004EBBE
:1040C00084010F4A02EB810000F05CF9641C072CAC
:1040D000F5D30C4800F056F90B4800F053F90B48A3
:1040E00000F050F90A4800F04DF90A4800F04AF98A
:1040F00004480949086004480849086010BD0000E8
:1041000030100020BC100020D0100020E41000204F
:10411000F81000200C11002074000020780000200E
:1041200010B50146164800E0006803688B42FBD3D7
:104130000246436813448B4204D143684C682344CD
:10414000436001460A464B6813440468A34211D1F8
:104150000C4C03682468A34208D04B680468646868
:1041600023444B6003681B680B6005E0054B1B682C
:104170000B6001E003680B60884200D0016010BD55
:104180004C000020540000200A490968096809B958
:10419000012100E0002121B14FF0FF31064A1160FA
:1041A00006E004490968C968C868034A41681160A3
:1041B0007047000074000020A00000200E48006836
:1041C000401C08B9012000E0002050B900BF502079
:1041D00080F31188BFF34F8FBFF36F8F00BF00BF15
:1041E000FEE700BF502080F31188BFF34F8FBFF36D
:1041F0006F8F00BF00BFFEE7640000202DE9F04193
:1042000004464FF0000800F007FA4648006808B975
:10421000FFF7AAFE44480068204000286BD1D4B1C3
:10422000083404F00700B0B104F00700C0F1080042
:10423000044404F0070008B9012000E0002050B950
:1042400000BF502080F31188BFF34F8FBFF36F8FF3
:1042500000BF00BFFEE7002C4DD034480068844208
:1042600049D8334E3046056801E02E462D6868680F
:10427000A04202D228680028F7D12A480068854267
:1042800039D0306800F10808286830606868001B81
:10429000102819D92F1907F0070008B9012000E0EC
:1042A000002050B900BF502080F31188BFF34F8F1A
:1042B000BFF36F8F00BF00BFFEE76868001B786028
:1042C0006C603846FFF72CFF184968680968081ABF
:1042D000164908600846006816490968884203D2F2
:1042E00012480068134908600F4968680968084364
:1042F00068600020286000F02BFB08F0070008B978
:10430000012000E0002050B900BF502080F3118848
:10431000BFF34F8FBFF36F8F00BF00BFFEE7404674
:10432000BDE8F0815400002060000020580000200B
:104330004C0000205C000020001F4FF080730360E1
:10434000001F21F001030360001F034B03601438BA
:104350000260203870470000BD41000801460A692C
:10436000D1E901309860D1E9010358605068884272
:1043700001D188685060002008611068401E1060FC
:104380001068704700F1080141604FF0FF31816013
:1043900000F10801C1600161002101607047002146
:1043A0000161704710B502460B685C1C0CB91069BE
:1043B00007E002F1080000E04068446824689C427D
:1043C000FAD944684C604C68A160886041600A6119
:1043D0001468641C146010BD42684A6093688B6066
:1043E000936859609160086103685B1C03607047C3
:1043F00000BF502080F31188BFF34F8FBFF36F8F42
:1044000000BF0E480068401C0C4908600846006860
:10441000012812D10A480068C0B208B9012000E0A2
:10442000002050B900BF502080F31188BFF34F8F98
:10443000BFF36F8F00BF00BFFEE77047640000202E
:1044400004ED00E00D48006850B900BF502080F333
:104450001188BFF34F8FBFF36F8F00BF00BFFEE720
:1044600006480068401E054908600846006820B9F3
:10447000002080F3118800BF00BF70476400002057
:1044800070B506463546002E3FD0083D2C461F49E4
:1044900060680968084008B1012000E0002050B9B8
:1044A00000BF502080F31188BFF34F8FBFF36F8F91
:1044B00000BF00BFFEE7206808B9012000E000202F
:1044C00050B900BF502080F31188BFF34F8FBFF366
:1044D0006F8F00BF00BFFEE70C49606809680840A5
:1044E00098B1206888B909496068096888436060A4
:1044F00000F092F8064960680968084404490860B9
:104500002046FFF70DFE00F023FA70BD600000208A
:1045100058000020064800684FF47A71B0FBF1F0B3
:10452000401E4FF0E02148610720086170470000FD
:104530004800002070B504460025D4B11248006838
:1045400008B9012000E0002050B900BF502080F3DE
:104550001188BFF34F8FBFF36F8F00BF00BFFEE71F
:1045600000F05AF800212046FFF71CFC00F0F0F99B
:1045700005463DB94FF0805004490860BFF34F8FA6
:10458000BFF36F8F70BD0000A800002004ED00E0B5
:104590001CB51A4800210B468022CDE9001018A155
:1045A000194800F0F1F80446012C15D100BF502045
:1045B00080F31188BFF34F8FBFF36F8F00BF4FF0B1
:1045C000FF3012490860012011490860002011499C
:1045D000086000F06FF810E0601C08B1012000E0F6
:1045E000002050B900BF502080F31188BFF34F8FD7
:1045F000BFF36F8F00BF00BFFEE71CBDA40000200B
:1046000049444C4500000000E53F0008A0000020A0
:104610008C0000208400002002480068401C0149F2
:1046200008607047A80000201D48006818B10120EC
:104630001C49086032E000201A4908601A480068E6
:10464000B0FA80F0C0F11F0101EB8100174A52F867
:10465000200008B1012000E0002050B900BF502028
:1046600080F31188BFF34F8FBFF36F8F00BF00BF80
:10467000FEE701EB81020D4B03EB820042685268BA
:10468000426000F108024368934202D142685268D6
:1046900042604268D268064B1A6000BF7047000053
:1046A000A800002094000020880000203010002086
:1046B000700000201CB52248014609780191FF21B5
:1046C000024611700146097800919DF8001001F032
:1046D00050011C4A117007211B4A116009E01A4958
:1046E0000968491E184A11609DF800104906090E14
:1046F00000919DF8001001F080018029EFD012494F
:1047000009680902104A11601146098801F4E06144
:1047100011600B4A019911700C48006840F4700058
:104720000A4908600846006840F070400860FFF7DA
:10473000F1FE002006490860FBF7F4FC00201CBDD8
:1047400000E400E0680000206C00002020ED00E0A4
:104750006400002010B500BF502080F31188BFF323
:104760004F8FBFF36F8F00BF00F04EF818B14FF0BE
:1047700080500449086000BF002080F3118800BF0A
:1047800010BD000004ED00E02DE9FF4F85B080462C
:1047900089461746DDE912ABB800FFF72FFD064644
:1047A00056B15420FFF72AFD04460CB1266304E0FD
:1047B0003046FFF765FE00E000247CB10020CDE923
:1047C00000ABCDE902403A4649464046089BFFF718
:1047D0001DFC2046FFF732FB012501E04FF0FF35BD
:1047E000284609B0BDE8F08F0549096809B90120DC
:1047F00005E00449096809B9022000E0002070477B
:104800008C000020A80000202DE9F0414FF00008A6
:1048100044480068002877D143480068451C424856
:10482000056015BB41480068006808B9012000E038
:10483000002050B900BF502080F31188BFF34F8F84
:10484000BFF36F8F00BF00BFFEE7384807683848E6
:104850000068364908603648076036480068401CE2
:1048600034490860FFF790FC00BF33480068854278
:104870003CD300BF2D480068006808B9012000E063
:10488000002020B14FF0FF302B4908602DE0274871
:104890000068C068C4686668B54202D226480660EF
:1048A00023E0201DFFF75AFDA06A18B104F118009B
:1048B000FFF754FD94F82C10012088401F49096827
:1048C00008431E490860E16A01EB81011C4A02EBC2
:1048D0008100211DFFF780FD1A49E06A0968C96A55
:1048E0008842C7D34FF00108C4E700BF15480068ED
:1048F000C06A00EB8000124951F82000012801D95C
:104900004FF0010805E0FFE70F480068401C0E4922
:1049100008600E48006808B14FF001084046BDE845
:10492000F0810000A8000020840000207400002016
:104930007800002098000020A000002088000020BF
:104940003010002070000020900000209400002013
:1049500070B5002400263648006850B900BF5020CA
:1049600080F31188BFF34F8FBFF36F8F00BF00BF7D
:10497000FEE7FFF73DFD2E480068401E2C49086009
:104980000846006800284FD12A48006800284BD00C
:1049900024E02948C068C46804F11800FFF7DEFC71
:1049A000201DFFF7DBFC94F82C10012088402349E0
:1049B0000968084321490860E16A01EB8101204A46
:1049C00002EB8100211DFFF707FD1E49E06A09681F
:1049D000C96A884202D301201B4908601648006852
:1049E00008B9012000E000200028D2D00CB1FFF768
:1049F000CBFB1648056865B100BFFFF705FF10B196
:104A00000120114908606D1E002DF6D100200F49CC
:104A100008600D48006838B1012630070C4908606D
:104A2000BFF34F8FBFF36F8FFFF70CFD304670BDA4
:104A3000A800002080000020E41000208800002052
:104A40003010002070000020940000209000002012
:104A500004ED00E0C04A0008452E000800000000F8
:104A60000000000080000000A84A0008593000083B
:104A7000FDFF00000000000080000000B44A0008B4
:104A8000F5320008FDFF000000000000800000007B
:104A900000000000000000000102030406070809EE
:104AA00000000000010203046D795461736B303221
:104AB000000000006D795461736B3033000000001A
:104AC00064656661756C745461736B00EC4A000830
:104AD00000000020AC000000B03B0008984B00082C
:104AE000AC00002084140000C03B0008000000005F
:104AF00000000000000000000000000000000000B6
:104B000000000000000000000000000000000000A5
:104B10000000000000000000000000000000000095
:104B20000000000000000000000000001000000075
:104B30000100000000A24A04000000000000000084
:104B40000000000000000000000000000000000065
:104B5000AAAAAAAA000000000000000000000000AD
:104B60000000000000000000000000000000000045
:104B70000000000000000000000000000000000035
:104B80000000000000000000000000000000000025
:084B900000000000000000001D
:04000005080000ED02
:00000001FF
